{
  "_format": "hh-sol-artifact-1",
  "contractName": "FieldBooking",
  "sourceName": "contracts/FieldBooking.sol",
  "abi": [
    {
      "inputs": [],
      "stateMutability": "nonpayable",
      "type": "constructor"
    },
    {
      "anonymous": false,
      "inputs": [
        {
          "indexed": true,
          "internalType": "address",
          "name": "admin",
          "type": "address"
        }
      ],
      "name": "AdminAdded",
      "type": "event"
    },
    {
      "anonymous": false,
      "inputs": [
        {
          "indexed": true,
          "internalType": "address",
          "name": "admin",
          "type": "address"
        }
      ],
      "name": "AdminRemoved",
      "type": "event"
    },
    {
      "anonymous": false,
      "inputs": [
        {
          "indexed": true,
          "internalType": "address",
          "name": "admin",
          "type": "address"
        },
        {
          "indexed": false,
          "internalType": "uint256",
          "name": "amount",
          "type": "uint256"
        },
        {
          "indexed": false,
          "internalType": "uint256",
          "name": "newBalance",
          "type": "uint256"
        },
        {
          "indexed": false,
          "internalType": "uint256",
          "name": "timestamp",
          "type": "uint256"
        }
      ],
      "name": "AdminWithdrawal",
      "type": "event"
    },
    {
      "anonymous": false,
      "inputs": [
        {
          "indexed": true,
          "internalType": "address",
          "name": "owner",
          "type": "address"
        },
        {
          "indexed": false,
          "internalType": "uint256",
          "name": "amount",
          "type": "uint256"
        }
      ],
      "name": "BalanceWithdrawn",
      "type": "event"
    },
    {
      "anonymous": false,
      "inputs": [
        {
          "indexed": true,
          "internalType": "uint256",
          "name": "bookingId",
          "type": "uint256"
        },
        {
          "indexed": false,
          "internalType": "address",
          "name": "user",
          "type": "address"
        },
        {
          "indexed": false,
          "internalType": "uint256",
          "name": "refundAmount",
          "type": "uint256"
        }
      ],
      "name": "BookingCancelled",
      "type": "event"
    },
    {
      "anonymous": false,
      "inputs": [
        {
          "indexed": true,
          "internalType": "uint256",
          "name": "bookingId",
          "type": "uint256"
        },
        {
          "indexed": false,
          "internalType": "uint256",
          "name": "ownerAmount",
          "type": "uint256"
        },
        {
          "indexed": false,
          "internalType": "uint256",
          "name": "feeAmount",
          "type": "uint256"
        }
      ],
      "name": "BookingConfirmed",
      "type": "event"
    },
    {
      "anonymous": false,
      "inputs": [
        {
          "indexed": true,
          "internalType": "uint256",
          "name": "bookingId",
          "type": "uint256"
        },
        {
          "indexed": false,
          "internalType": "uint256",
          "name": "fieldId",
          "type": "uint256"
        },
        {
          "indexed": false,
          "internalType": "address",
          "name": "user",
          "type": "address"
        },
        {
          "indexed": false,
          "internalType": "uint256",
          "name": "startTime",
          "type": "uint256"
        },
        {
          "indexed": false,
          "internalType": "uint256",
          "name": "endTime",
          "type": "uint256"
        },
        {
          "indexed": false,
          "internalType": "uint256",
          "name": "amount",
          "type": "uint256"
        }
      ],
      "name": "BookingCreated",
      "type": "event"
    },
    {
      "anonymous": false,
      "inputs": [
        {
          "indexed": true,
          "internalType": "uint256",
          "name": "bookingId",
          "type": "uint256"
        },
        {
          "indexed": false,
          "internalType": "uint256",
          "name": "fieldId",
          "type": "uint256"
        },
        {
          "indexed": true,
          "internalType": "address",
          "name": "user",
          "type": "address"
        },
        {
          "indexed": false,
          "internalType": "uint256",
          "name": "amount",
          "type": "uint256"
        },
        {
          "indexed": false,
          "internalType": "uint256",
          "name": "adminEarnings",
          "type": "uint256"
        },
        {
          "indexed": false,
          "internalType": "uint256",
          "name": "timestamp",
          "type": "uint256"
        }
      ],
      "name": "BookingPaymentReceived",
      "type": "event"
    },
    {
      "anonymous": false,
      "inputs": [
        {
          "indexed": true,
          "internalType": "uint256",
          "name": "fieldId",
          "type": "uint256"
        },
        {
          "indexed": false,
          "internalType": "string",
          "name": "name",
          "type": "string"
        },
        {
          "indexed": false,
          "internalType": "uint256",
          "name": "pricePerHour",
          "type": "uint256"
        },
        {
          "indexed": false,
          "internalType": "address",
          "name": "owner",
          "type": "address"
        }
      ],
      "name": "FieldCreated",
      "type": "event"
    },
    {
      "anonymous": false,
      "inputs": [
        {
          "indexed": true,
          "internalType": "uint256",
          "name": "fieldId",
          "type": "uint256"
        },
        {
          "indexed": false,
          "internalType": "bool",
          "name": "isActive",
          "type": "bool"
        }
      ],
      "name": "FieldStatusChanged",
      "type": "event"
    },
    {
      "anonymous": false,
      "inputs": [
        {
          "indexed": true,
          "internalType": "uint256",
          "name": "fieldId",
          "type": "uint256"
        },
        {
          "indexed": false,
          "internalType": "uint256",
          "name": "newPrice",
          "type": "uint256"
        }
      ],
      "name": "FieldUpdated",
      "type": "event"
    },
    {
      "inputs": [],
      "name": "PLATFORM_FEE_PERCENT",
      "outputs": [
        {
          "internalType": "uint256",
          "name": "",
          "type": "uint256"
        }
      ],
      "stateMutability": "view",
      "type": "function"
    },
    {
      "inputs": [
        {
          "internalType": "address",
          "name": "admin",
          "type": "address"
        }
      ],
      "name": "addAdmin",
      "outputs": [],
      "stateMutability": "nonpayable",
      "type": "function"
    },
    {
      "inputs": [
        {
          "internalType": "address",
          "name": "",
          "type": "address"
        }
      ],
      "name": "admins",
      "outputs": [
        {
          "internalType": "bool",
          "name": "",
          "type": "bool"
        }
      ],
      "stateMutability": "view",
      "type": "function"
    },
    {
      "inputs": [
        {
          "internalType": "uint256",
          "name": "_fieldId",
          "type": "uint256"
        },
        {
          "internalType": "uint256",
          "name": "_startTime",
          "type": "uint256"
        },
        {
          "internalType": "uint256",
          "name": "_endTime",
          "type": "uint256"
        }
      ],
      "name": "bookField",
      "outputs": [],
      "stateMutability": "payable",
      "type": "function"
    },
    {
      "inputs": [],
      "name": "bookingCounter",
      "outputs": [
        {
          "internalType": "uint256",
          "name": "",
          "type": "uint256"
        }
      ],
      "stateMutability": "view",
      "type": "function"
    },
    {
      "inputs": [
        {
          "internalType": "uint256",
          "name": "",
          "type": "uint256"
        }
      ],
      "name": "bookingDates",
      "outputs": [
        {
          "internalType": "uint256",
          "name": "",
          "type": "uint256"
        }
      ],
      "stateMutability": "view",
      "type": "function"
    },
    {
      "inputs": [
        {
          "internalType": "uint256",
          "name": "",
          "type": "uint256"
        }
      ],
      "name": "bookings",
      "outputs": [
        {
          "internalType": "uint256",
          "name": "id",
          "type": "uint256"
        },
        {
          "internalType": "uint256",
          "name": "fieldId",
          "type": "uint256"
        },
        {
          "internalType": "address",
          "name": "user",
          "type": "address"
        },
        {
          "internalType": "uint256",
          "name": "startTime",
          "type": "uint256"
        },
        {
          "internalType": "uint256",
          "name": "endTime",
          "type": "uint256"
        },
        {
          "internalType": "uint256",
          "name": "amountPaid",
          "type": "uint256"
        },
        {
          "internalType": "enum FieldBooking.BookingStatus",
          "name": "status",
          "type": "uint8"
        },
        {
          "internalType": "uint256",
          "name": "createdAt",
          "type": "uint256"
        }
      ],
      "stateMutability": "view",
      "type": "function"
    },
    {
      "inputs": [
        {
          "internalType": "uint256",
          "name": "_bookingId",
          "type": "uint256"
        }
      ],
      "name": "cancelBooking",
      "outputs": [],
      "stateMutability": "nonpayable",
      "type": "function"
    },
    {
      "inputs": [
        {
          "internalType": "uint256",
          "name": "_bookingId",
          "type": "uint256"
        }
      ],
      "name": "confirmBooking",
      "outputs": [],
      "stateMutability": "nonpayable",
      "type": "function"
    },
    {
      "inputs": [],
      "name": "contractBalance",
      "outputs": [
        {
          "internalType": "uint256",
          "name": "",
          "type": "uint256"
        }
      ],
      "stateMutability": "view",
      "type": "function"
    },
    {
      "inputs": [
        {
          "internalType": "string",
          "name": "_name",
          "type": "string"
        },
        {
          "internalType": "uint256",
          "name": "_pricePerHour",
          "type": "uint256"
        }
      ],
      "name": "createField",
      "outputs": [],
      "stateMutability": "nonpayable",
      "type": "function"
    },
    {
      "inputs": [
        {
          "internalType": "uint256",
          "name": "",
          "type": "uint256"
        }
      ],
      "name": "dailyRevenue",
      "outputs": [
        {
          "internalType": "uint256",
          "name": "",
          "type": "uint256"
        }
      ],
      "stateMutability": "view",
      "type": "function"
    },
    {
      "inputs": [
        {
          "internalType": "uint256",
          "name": "",
          "type": "uint256"
        }
      ],
      "name": "fieldBookingCount",
      "outputs": [
        {
          "internalType": "uint256",
          "name": "",
          "type": "uint256"
        }
      ],
      "stateMutability": "view",
      "type": "function"
    },
    {
      "inputs": [
        {
          "internalType": "uint256",
          "name": "",
          "type": "uint256"
        },
        {
          "internalType": "uint256",
          "name": "",
          "type": "uint256"
        }
      ],
      "name": "fieldBookings",
      "outputs": [
        {
          "internalType": "uint256",
          "name": "",
          "type": "uint256"
        }
      ],
      "stateMutability": "view",
      "type": "function"
    },
    {
      "inputs": [],
      "name": "fieldCounter",
      "outputs": [
        {
          "internalType": "uint256",
          "name": "",
          "type": "uint256"
        }
      ],
      "stateMutability": "view",
      "type": "function"
    },
    {
      "inputs": [
        {
          "internalType": "uint256",
          "name": "",
          "type": "uint256"
        }
      ],
      "name": "fieldTotalRevenue",
      "outputs": [
        {
          "internalType": "uint256",
          "name": "",
          "type": "uint256"
        }
      ],
      "stateMutability": "view",
      "type": "function"
    },
    {
      "inputs": [
        {
          "internalType": "uint256",
          "name": "",
          "type": "uint256"
        }
      ],
      "name": "fields",
      "outputs": [
        {
          "internalType": "uint256",
          "name": "id",
          "type": "uint256"
        },
        {
          "internalType": "string",
          "name": "name",
          "type": "string"
        },
        {
          "internalType": "uint256",
          "name": "pricePerHour",
          "type": "uint256"
        },
        {
          "internalType": "bool",
          "name": "isActive",
          "type": "bool"
        },
        {
          "internalType": "address",
          "name": "owner",
          "type": "address"
        },
        {
          "internalType": "uint256",
          "name": "createdAt",
          "type": "uint256"
        }
      ],
      "stateMutability": "view",
      "type": "function"
    },
    {
      "inputs": [],
      "name": "getAdminSummary",
      "outputs": [
        {
          "internalType": "uint256",
          "name": "totalFields",
          "type": "uint256"
        },
        {
          "internalType": "uint256",
          "name": "totalBookings",
          "type": "uint256"
        },
        {
          "internalType": "uint256",
          "name": "totalRevenue",
          "type": "uint256"
        },
        {
          "internalType": "uint256",
          "name": "adminBalance",
          "type": "uint256"
        },
        {
          "internalType": "uint256",
          "name": "contractTotalBalance",
          "type": "uint256"
        }
      ],
      "stateMutability": "view",
      "type": "function"
    },
    {
      "inputs": [
        {
          "internalType": "address",
          "name": "_owner",
          "type": "address"
        }
      ],
      "name": "getBalance",
      "outputs": [
        {
          "internalType": "uint256",
          "name": "",
          "type": "uint256"
        }
      ],
      "stateMutability": "view",
      "type": "function"
    },
    {
      "inputs": [],
      "name": "getContractStats",
      "outputs": [
        {
          "internalType": "uint256",
          "name": "totalFields",
          "type": "uint256"
        },
        {
          "internalType": "uint256",
          "name": "totalBookings",
          "type": "uint256"
        },
        {
          "internalType": "uint256",
          "name": "contractETHBalance",
          "type": "uint256"
        }
      ],
      "stateMutability": "view",
      "type": "function"
    },
    {
      "inputs": [
        {
          "internalType": "uint256",
          "name": "_date",
          "type": "uint256"
        }
      ],
      "name": "getDailyRevenue",
      "outputs": [
        {
          "internalType": "uint256",
          "name": "",
          "type": "uint256"
        }
      ],
      "stateMutability": "view",
      "type": "function"
    },
    {
      "inputs": [
        {
          "internalType": "uint256",
          "name": "_fieldId",
          "type": "uint256"
        }
      ],
      "name": "getField",
      "outputs": [
        {
          "components": [
            {
              "internalType": "uint256",
              "name": "id",
              "type": "uint256"
            },
            {
              "internalType": "string",
              "name": "name",
              "type": "string"
            },
            {
              "internalType": "uint256",
              "name": "pricePerHour",
              "type": "uint256"
            },
            {
              "internalType": "bool",
              "name": "isActive",
              "type": "bool"
            },
            {
              "internalType": "address",
              "name": "owner",
              "type": "address"
            },
            {
              "internalType": "uint256",
              "name": "createdAt",
              "type": "uint256"
            }
          ],
          "internalType": "struct FieldBooking.Field",
          "name": "",
          "type": "tuple"
        }
      ],
      "stateMutability": "view",
      "type": "function"
    },
    {
      "inputs": [
        {
          "internalType": "uint256",
          "name": "_fieldId",
          "type": "uint256"
        }
      ],
      "name": "getFieldBookingCount",
      "outputs": [
        {
          "internalType": "uint256",
          "name": "",
          "type": "uint256"
        }
      ],
      "stateMutability": "view",
      "type": "function"
    },
    {
      "inputs": [
        {
          "internalType": "uint256",
          "name": "_fieldId",
          "type": "uint256"
        }
      ],
      "name": "getFieldBookings",
      "outputs": [
        {
          "components": [
            {
              "internalType": "uint256",
              "name": "id",
              "type": "uint256"
            },
            {
              "internalType": "uint256",
              "name": "fieldId",
              "type": "uint256"
            },
            {
              "internalType": "address",
              "name": "user",
              "type": "address"
            },
            {
              "internalType": "uint256",
              "name": "startTime",
              "type": "uint256"
            },
            {
              "internalType": "uint256",
              "name": "endTime",
              "type": "uint256"
            },
            {
              "internalType": "uint256",
              "name": "amountPaid",
              "type": "uint256"
            },
            {
              "internalType": "enum FieldBooking.BookingStatus",
              "name": "status",
              "type": "uint8"
            },
            {
              "internalType": "uint256",
              "name": "createdAt",
              "type": "uint256"
            }
          ],
          "internalType": "struct FieldBooking.Booking[]",
          "name": "",
          "type": "tuple[]"
        }
      ],
      "stateMutability": "view",
      "type": "function"
    },
    {
      "inputs": [
        {
          "internalType": "uint256",
          "name": "_fieldId",
          "type": "uint256"
        }
      ],
      "name": "getFieldRevenue",
      "outputs": [
        {
          "internalType": "uint256",
          "name": "",
          "type": "uint256"
        }
      ],
      "stateMutability": "view",
      "type": "function"
    },
    {
      "inputs": [
        {
          "internalType": "uint256",
          "name": "_fieldId",
          "type": "uint256"
        }
      ],
      "name": "getFieldStats",
      "outputs": [
        {
          "internalType": "string",
          "name": "fieldName",
          "type": "string"
        },
        {
          "internalType": "uint256",
          "name": "pricePerHour",
          "type": "uint256"
        },
        {
          "internalType": "bool",
          "name": "isActive",
          "type": "bool"
        },
        {
          "internalType": "uint256",
          "name": "totalBookings",
          "type": "uint256"
        },
        {
          "internalType": "uint256",
          "name": "totalRevenue",
          "type": "uint256"
        }
      ],
      "stateMutability": "view",
      "type": "function"
    },
    {
      "inputs": [],
      "name": "getFields",
      "outputs": [
        {
          "components": [
            {
              "internalType": "uint256",
              "name": "id",
              "type": "uint256"
            },
            {
              "internalType": "string",
              "name": "name",
              "type": "string"
            },
            {
              "internalType": "uint256",
              "name": "pricePerHour",
              "type": "uint256"
            },
            {
              "internalType": "bool",
              "name": "isActive",
              "type": "bool"
            },
            {
              "internalType": "address",
              "name": "owner",
              "type": "address"
            },
            {
              "internalType": "uint256",
              "name": "createdAt",
              "type": "uint256"
            }
          ],
          "internalType": "struct FieldBooking.Field[]",
          "name": "",
          "type": "tuple[]"
        }
      ],
      "stateMutability": "view",
      "type": "function"
    },
    {
      "inputs": [],
      "name": "getMostBookedField",
      "outputs": [
        {
          "internalType": "uint256",
          "name": "fieldId",
          "type": "uint256"
        },
        {
          "internalType": "uint256",
          "name": "bookingCount",
          "type": "uint256"
        }
      ],
      "stateMutability": "view",
      "type": "function"
    },
    {
      "inputs": [],
      "name": "getPendingBookingsCount",
      "outputs": [
        {
          "internalType": "uint256",
          "name": "",
          "type": "uint256"
        }
      ],
      "stateMutability": "view",
      "type": "function"
    },
    {
      "inputs": [
        {
          "internalType": "address",
          "name": "_user",
          "type": "address"
        }
      ],
      "name": "getUserBookings",
      "outputs": [
        {
          "components": [
            {
              "internalType": "uint256",
              "name": "id",
              "type": "uint256"
            },
            {
              "internalType": "uint256",
              "name": "fieldId",
              "type": "uint256"
            },
            {
              "internalType": "address",
              "name": "user",
              "type": "address"
            },
            {
              "internalType": "uint256",
              "name": "startTime",
              "type": "uint256"
            },
            {
              "internalType": "uint256",
              "name": "endTime",
              "type": "uint256"
            },
            {
              "internalType": "uint256",
              "name": "amountPaid",
              "type": "uint256"
            },
            {
              "internalType": "enum FieldBooking.BookingStatus",
              "name": "status",
              "type": "uint8"
            },
            {
              "internalType": "uint256",
              "name": "createdAt",
              "type": "uint256"
            }
          ],
          "internalType": "struct FieldBooking.Booking[]",
          "name": "",
          "type": "tuple[]"
        }
      ],
      "stateMutability": "view",
      "type": "function"
    },
    {
      "inputs": [
        {
          "internalType": "uint256",
          "name": "_fieldId",
          "type": "uint256"
        },
        {
          "internalType": "uint256",
          "name": "_startTime",
          "type": "uint256"
        },
        {
          "internalType": "uint256",
          "name": "_endTime",
          "type": "uint256"
        }
      ],
      "name": "hasTimeConflict",
      "outputs": [
        {
          "internalType": "bool",
          "name": "",
          "type": "bool"
        }
      ],
      "stateMutability": "view",
      "type": "function"
    },
    {
      "inputs": [
        {
          "internalType": "address",
          "name": "account",
          "type": "address"
        }
      ],
      "name": "isAdmin",
      "outputs": [
        {
          "internalType": "bool",
          "name": "",
          "type": "bool"
        }
      ],
      "stateMutability": "view",
      "type": "function"
    },
    {
      "inputs": [
        {
          "internalType": "address",
          "name": "",
          "type": "address"
        }
      ],
      "name": "ownerBalance",
      "outputs": [
        {
          "internalType": "uint256",
          "name": "",
          "type": "uint256"
        }
      ],
      "stateMutability": "view",
      "type": "function"
    },
    {
      "inputs": [],
      "name": "platformOwner",
      "outputs": [
        {
          "internalType": "address",
          "name": "",
          "type": "address"
        }
      ],
      "stateMutability": "view",
      "type": "function"
    },
    {
      "inputs": [
        {
          "internalType": "address",
          "name": "admin",
          "type": "address"
        }
      ],
      "name": "removeAdmin",
      "outputs": [],
      "stateMutability": "nonpayable",
      "type": "function"
    },
    {
      "inputs": [
        {
          "internalType": "uint256",
          "name": "_fieldId",
          "type": "uint256"
        }
      ],
      "name": "toggleFieldStatus",
      "outputs": [],
      "stateMutability": "nonpayable",
      "type": "function"
    },
    {
      "inputs": [
        {
          "internalType": "uint256",
          "name": "_fieldId",
          "type": "uint256"
        },
        {
          "internalType": "uint256",
          "name": "_newPrice",
          "type": "uint256"
        }
      ],
      "name": "updateFieldPrice",
      "outputs": [],
      "stateMutability": "nonpayable",
      "type": "function"
    },
    {
      "inputs": [
        {
          "internalType": "address",
          "name": "",
          "type": "address"
        },
        {
          "internalType": "uint256",
          "name": "",
          "type": "uint256"
        }
      ],
      "name": "userBookings",
      "outputs": [
        {
          "internalType": "uint256",
          "name": "",
          "type": "uint256"
        }
      ],
      "stateMutability": "view",
      "type": "function"
    },
    {
      "inputs": [],
      "name": "withdrawBalance",
      "outputs": [],
      "stateMutability": "nonpayable",
      "type": "function"
    }
  ],
  "bytecode": "0x608060405260006001556000600255600060085534801561001f57600080fd5b50600080546001600160a01b03191633179055612ee3806100416000396000f3fe6080604052600436106102045760003560e01c80638074ec0611610118578063ca602492116100a0578063dfe6b5d61161006f578063dfe6b5d6146106c3578063e3a4d3a2146106f4578063ef3197c814610714578063f2919d5414610734578063f8b2cb4f1461074757600080fd5b8063ca60249214610639578063d287ac421461065b578063d4c3e5ec14610671578063d54f005d1461068657600080fd5b8063add6e420116100e7578063add6e42014610565578063af90fdfd14610592578063c02b48f0146105bf578063c064c8a3146105ec578063c4be826d1461060c57600080fd5b80638074ec06146104e55780638ac778341461050f5780638b7afe2e1461052f5780638b7d28371461054557600080fd5b80633be68f081161019b5780635d0315ca1161016a5780635d0315ca1461043f5780635e0132201461045f5780635fd8c7101461047f5780636ecb73041461049457806379f4a91f146104c557600080fd5b80633be68f08146103a55780634df8ccb1146103d257806354056b691461040a578063560d52d41461042a57600080fd5b806319137856116101d757806319137856146102a45780631dab301e146102d657806320a3babc146103585780632fa807ee1461038557600080fd5b8063035112281461020957806307e2faf6146102325780630dca825e146102625780630e16612f14610284575b600080fd5b34801561021557600080fd5b5061021f60015481565b6040519081526020015b60405180910390f35b34801561023e57600080fd5b5061025261024d36600461278d565b61077d565b6040519015158152602001610229565b34801561026e57600080fd5b5061028261027d3660046127b9565b61097d565b005b34801561029057600080fd5b5061021f61029f3660046127b9565b610c4a565b3480156102b057600080fd5b506102c46102bf3660046127b9565b610c9c565b60405161022996959493929190612818565b3480156102e257600080fd5b506103446102f13660046127b9565b600460208190526000918252604090912080546001820154600283015460038401549484015460058501546006860154600790960154949693956001600160a01b03909316949192909160ff9091169088565b604051610229989796959493929190612897565b34801561036457600080fd5b5061021f6103733660046127b9565b60096020526000908152604090205481565b34801561039157600080fd5b5061021f6103a03660046127b9565b610d68565b3480156103b157600080fd5b5061021f6103c03660046127b9565b600b6020526000908152604090205481565b3480156103de57600080fd5b506000546103f2906001600160a01b031681565b6040516001600160a01b039091168152602001610229565b34801561041657600080fd5b506102826104253660046127b9565b610d89565b34801561043657600080fd5b5061021f600581565b34801561044b57600080fd5b5061028261045a366004612900565b61109f565b34801561046b57600080fd5b5061021f61047a3660046127b9565b611270565b34801561048b57600080fd5b5061028261130f565b3480156104a057600080fd5b506104b46104af3660046127b9565b611460565b6040516102299594939291906129b5565b3480156104d157600080fd5b5061021f6104e03660046127b9565b61162b565b3480156104f157600080fd5b506104fa6116c6565b60408051928352602083019190915201610229565b34801561051b57600080fd5b5061021f61052a3660046129ec565b611761565b34801561053b57600080fd5b5061021f60085481565b34801561055157600080fd5b506102826105603660046127b9565b611792565b34801561057157600080fd5b506105856105803660046127b9565b611872565b6040516102299190612a6b565b34801561059e57600080fd5b5061021f6105ad366004612a9c565b60076020526000908152604090205481565b3480156105cb57600080fd5b506105df6105da3660046127b9565b6119cf565b6040516102299190612ab7565b3480156105f857600080fd5b506102826106073660046129ec565b611be5565b34801561061857600080fd5b5061021f6106273660046127b9565b600a6020526000908152604090205481565b34801561064557600080fd5b5061064e611d10565b6040516102299190612b57565b34801561066757600080fd5b5061021f60025481565b34801561067d57600080fd5b5061021f611ea3565b34801561069257600080fd5b5061069b611efd565b604080519586526020860194909452928401919091526060830152608082015260a001610229565b3480156106cf57600080fd5b5060015460025460085460408051938452602084019290925290820152606001610229565b34801561070057600080fd5b5061021f61070f366004612bb9565b612055565b34801561072057600080fd5b506105df61072f366004612a9c565b612071565b61028261074236600461278d565b612229565b34801561075357600080fd5b5061021f610762366004612a9c565b6001600160a01b031660009081526007602052604090205490565b60008360008111801561079257506001548111155b6107b75760405162461bcd60e51b81526004016107ae90612be3565b60405180910390fd5b60008181526003602052604081205490036107e45760405162461bcd60e51b81526004016107ae90612c11565b60008581526006602090815260408083208054825181850281018501909352808352919290919083018282801561083a57602002820191906000526020600020905b815481526020019060010190808311610826575b5050505050905060005b815181101561096e5760006004600084848151811061086557610865612c3a565b6020908102919091018101518252818101929092526040908101600020815161010081018352815481526001820154938101939093526002808201546001600160a01b0316928401929092526003810154606084015260048101546080840152600581015460a08401526006810154909160c084019160ff16908111156108ee576108ee61285f565b60028111156108ff576108ff61285f565b815260079190910154602090910152905060028160c0015160028111156109285761092861285f565b03610933575061095c565b80606001518611158061094a575080608001518710155b61095a5760019450505050610975565b505b8061096681612c66565b915050610844565b5060009250505b509392505050565b8060008111801561099057506002548111155b6109d55760405162461bcd60e51b8152602060048201526016602482015275109bdbdada5b99c8191bd95cc81b9bdd08195e1a5cdd60521b60448201526064016107ae565b6000818152600460205260408120549003610a265760405162461bcd60e51b8152602060048201526011602482015270109bdbdada5b99c81b9bdd08199bdd5b99607a1b60448201526064016107ae565b600260008381526004602052604090206006015460ff166002811115610a4e57610a4e61285f565b03610a9b5760405162461bcd60e51b815260206004820152601c60248201527f426f6f6b696e6720697320616c72656164792063616e63656c6c65640000000060448201526064016107ae565b600082815260046020526040902060028101546001600160a01b0316331480610ace57506000546001600160a01b031633145b610b285760405162461bcd60e51b815260206004820152602560248201527f4e6f7420617574686f72697a656420746f2063616e63656c207468697320626f6044820152646f6b696e6760d81b60648201526084016107ae565b6000600682015460ff166002811115610b4357610b4361285f565b14610b905760405162461bcd60e51b815260206004820181905260248201527f43616e6e6f742063616e63656c20636f6e6669726d656420626f6f6b696e677360448201526064016107ae565b60068101805460ff191660029081179091556005820154908201546040516001600160a01b03909116906108fc8315029083906000818181858888f19350505050158015610be2573d6000803e3d6000fd5b508060086000828254610bf59190612c7f565b90915550506002820154604080516001600160a01b0390921682526020820183905285917f1b6cb622ce03beaf3e0c44cb4253af7c70bb84b7e3711229b33cc2ec4c613c8e910160405180910390a250505050565b600080546001600160a01b03163314610c755760405162461bcd60e51b81526004016107ae90612c98565b6000610c846201518084612ce5565b6000908152600960205260409020549150505b919050565b60036020526000908152604090208054600182018054919291610cbe90612cf9565b80601f0160208091040260200160405190810160405280929190818152602001828054610cea90612cf9565b8015610d375780601f10610d0c57610100808354040283529160200191610d37565b820191906000526020600020905b815481529060010190602001808311610d1a57829003601f168201915b50505050600283015460038401546004909401549293909260ff821692506101009091046001600160a01b03169086565b600c8181548110610d7857600080fd5b600091825260209091200154905081565b6000546001600160a01b03163314610db35760405162461bcd60e51b81526004016107ae90612c98565b80600081118015610dc657506002548111155b610e0b5760405162461bcd60e51b8152602060048201526016602482015275109bdbdada5b99c8191bd95cc81b9bdd08195e1a5cdd60521b60448201526064016107ae565b6000818152600460205260408120549003610e5c5760405162461bcd60e51b8152602060048201526011602482015270109bdbdada5b99c81b9bdd08199bdd5b99607a1b60448201526064016107ae565b60008281526004602052604081206006015460ff166002811115610e8257610e8261285f565b14610ede5760405162461bcd60e51b815260206004820152602660248201527f4f6e6c792070656e64696e6720626f6f6b696e67732063616e20626520636f6e604482015265199a5c9b595960d21b60648201526084016107ae565b600082815260046020526040812060068101805460ff19166001179055906064610f09600582612c7f565b8360050154610f189190612d2d565b610f229190612ce5565b90506000818360050154610f369190612c7f565b600080546001600160a01b0316815260076020526040812080549293508492909190610f63908490612d44565b9091555060009050610f786201518042612ce5565b6005850154600082815260096020526040812080549394509192610f9d908490612d44565b9091555050600584015460018501546000908152600a602052604081208054909190610fca908490612d44565b90915550506001848101546000908152600b602052604081208054909190610ff3908490612d44565b9091555050604080518481526020810184905287917f6a69a2a2c33199240613bd84058b3ca37835422456ddcba2241098baaa72ae0a910160405180910390a260028401546001850154600586015460408051928352602083019190915281018590524260608201526001600160a01b039091169087907fe94168c6d017335c1e00273bb7c084c12d29461e3acd173d5b58e1efe52c8f419060800160405180910390a3505050505050565b6000546001600160a01b031633146110c95760405162461bcd60e51b81526004016107ae90612c98565b600082511161111a5760405162461bcd60e51b815260206004820152601a60248201527f4669656c64206e616d652063616e6e6f7420626520656d70747900000000000060448201526064016107ae565b6000811161116a5760405162461bcd60e51b815260206004820152601c60248201527f5072696365206d7573742062652067726561746572207468616e20300000000060448201526064016107ae565b6001805490600061117a83612c66565b90915550506040805160c081018252600180548083526020808401878152848601879052606085018490523360808601524260a086015260009283526003909152939020825181559251919291908201906111d59082612da6565b506040828101516002830155606083015160038301805460808601516001600160a01b031661010002610100600160a81b0319931515939093166001600160a81b03199091161791909117905560a09092015160049091015560015490517fb0b52ce54e2a0a6773242b18f24f49bd7b1be95d15fabcad66f8c631a50b1b129061126490859085903390612e66565b60405180910390a25050565b600080546001600160a01b0316331461129b5760405162461bcd60e51b81526004016107ae90612c98565b816000811180156112ae57506001548111155b6112ca5760405162461bcd60e51b81526004016107ae90612be3565b60008181526003602052604081205490036112f75760405162461bcd60e51b81526004016107ae90612c11565b6000838152600b602052604090205491505b50919050565b6000546001600160a01b031633146113395760405162461bcd60e51b81526004016107ae90612c98565b336000908152600760205260409020548061138f5760405162461bcd60e51b81526020600482015260166024820152754e6f2062616c616e636520746f20776974686472617760501b60448201526064016107ae565b336000908152600760205260408120819055600880548392906113b3908490612c7f565b9091555050604051339082156108fc029083906000818181858888f193505050501580156113e5573d6000803e3d6000fd5b5060405181815233907fddc398b321237a8d40ac914388309c2f52a08c134e4dc4ce61e32f57cb7d80f19060200160405180910390a260408051828152600060208201524281830152905133917f80ebcacc706983394bb8fcc88ea7b9241338fb4617fffbea411b68b40ed5627e919081900360600190a250565b60008054606091908190819081906001600160a01b031633146114955760405162461bcd60e51b81526004016107ae90612c98565b856000811180156114a857506001548111155b6114c45760405162461bcd60e51b81526004016107ae90612be3565b60008181526003602052604081205490036114f15760405162461bcd60e51b81526004016107ae90612c11565b6000600360008981526020019081526020016000206040518060c00160405290816000820154815260200160018201805461152b90612cf9565b80601f016020809104026020016040519081016040528092919081815260200182805461155790612cf9565b80156115a45780601f10611579576101008083540402835291602001916115a4565b820191906000526020600020905b81548152906001019060200180831161158757829003601f168201915b50505091835250506002820154602080830191909152600383015460ff811615156040808501919091526101009091046001600160a01b03166060808501919091526004909401546080909301929092528381015184830151949093015160009c8d52600b8252828d2054600a90925291909b2054919b929a909950975095509350505050565b600080546001600160a01b031633146116565760405162461bcd60e51b81526004016107ae90612c98565b8160008111801561166957506001548111155b6116855760405162461bcd60e51b81526004016107ae90612be3565b60008181526003602052604081205490036116b25760405162461bcd60e51b81526004016107ae90612c11565b50506000908152600a602052604090205490565b6000805481906001600160a01b031633146116f35760405162461bcd60e51b81526004016107ae90612c98565b60008060015b6001548111611758576000818152600360205260409020541580159061172c57506000818152600b602052604090205483105b15611746576000818152600b602052604090205492509050805b8061175081612c66565b9150506116f9565b50925090509091565b6006602052816000526040600020818154811061177d57600080fd5b90600052602060002001600091509150505481565b6000546001600160a01b031633146117bc5760405162461bcd60e51b81526004016107ae90612c98565b806000811180156117cf57506001548111155b6117eb5760405162461bcd60e51b81526004016107ae90612be3565b60008181526003602052604081205490036118185760405162461bcd60e51b81526004016107ae90612c11565b600082815260036020818152604092839020909101805460ff8082161560ff199092168217909255925192161515825283917f4e699bb48bd886cf1ad6c4392ba6407b8d5774e84463f8fb45100201dcba3fab9101611264565b61187a6126ed565b8160008111801561188d57506001548111155b6118a95760405162461bcd60e51b81526004016107ae90612be3565b60008181526003602052604081205490036118d65760405162461bcd60e51b81526004016107ae90612c11565b600360008481526020019081526020016000206040518060c00160405290816000820154815260200160018201805461190e90612cf9565b80601f016020809104026020016040519081016040528092919081815260200182805461193a90612cf9565b80156119875780601f1061195c57610100808354040283529160200191611987565b820191906000526020600020905b81548152906001019060200180831161196a57829003601f168201915b505050918352505060028201546020820152600382015460ff81161515604083015261010090046001600160a01b031660608201526004909101546080909101529392505050565b6060816000811180156119e457506001548111155b611a005760405162461bcd60e51b81526004016107ae90612be3565b6000818152600360205260408120549003611a2d5760405162461bcd60e51b81526004016107ae90612c11565b600083815260066020908152604080832080548251818502810185019093528083529192909190830182828015611a8357602002820191906000526020600020905b815481526020019060010190808311611a6f575b505050505090506000815167ffffffffffffffff811115611aa657611aa66128ea565b604051908082528060200260200182016040528015611adf57816020015b611acc61272e565b815260200190600190039081611ac45790505b50905060005b8251811015611bdc5760046000848381518110611b0457611b04612c3a565b6020908102919091018101518252818101929092526040908101600020815161010081018352815481526001820154938101939093526002808201546001600160a01b0316928401929092526003810154606084015260048101546080840152600581015460a08401526006810154909160c084019160ff1690811115611b8d57611b8d61285f565b6002811115611b9e57611b9e61285f565b8152602001600782015481525050828281518110611bbe57611bbe612c3a565b60200260200101819052508080611bd490612c66565b915050611ae5565b50949350505050565b6000546001600160a01b03163314611c0f5760405162461bcd60e51b81526004016107ae90612c98565b81600081118015611c2257506001548111155b611c3e5760405162461bcd60e51b81526004016107ae90612be3565b6000818152600360205260408120549003611c6b5760405162461bcd60e51b81526004016107ae90612c11565b60008211611cbb5760405162461bcd60e51b815260206004820152601c60248201527f5072696365206d7573742062652067726561746572207468616e20300000000060448201526064016107ae565b600083815260036020526040908190206002018390555183907f0fe51d9212d49665a9d9d9a415707d50434a587e7d199a57ace1fc74a1acd04090611d039085815260200190565b60405180910390a2505050565b6060600060015467ffffffffffffffff811115611d2f57611d2f6128ea565b604051908082528060200260200182016040528015611d6857816020015b611d556126ed565b815260200190600190039081611d4d5790505b50905060015b600154811161130957600360008281526020019081526020016000206040518060c001604052908160008201548152602001600182018054611daf90612cf9565b80601f0160208091040260200160405190810160405280929190818152602001828054611ddb90612cf9565b8015611e285780601f10611dfd57610100808354040283529160200191611e28565b820191906000526020600020905b815481529060010190602001808311611e0b57829003601f168201915b505050918352505060028201546020820152600382015460ff81161515604083015261010090046001600160a01b0316606082015260049091015460809091015282611e75600184612c7f565b81518110611e8557611e85612c3a565b60200260200101819052508080611e9b90612c66565b915050611d6e565b60008060015b60025481116113095760008181526004602052604081206006015460ff166002811115611ed857611ed861285f565b03611eeb5781611ee781612c66565b9250505b80611ef581612c66565b915050611ea9565b6000805481908190819081906001600160a01b03163314611f305760405162461bcd60e51b81526004016107ae90612c98565b6000808060015b6001548111611f945760008181526003602052604090205415801590611f6f57506000818152600360208190526040909120015460ff165b15611f825783611f7e81612c66565b9450505b80611f8c81612c66565b915050611f37565b5060015b60025481116120275760008181526004602052604090205415801590611fe35750600160008281526004602052604090206006015460ff166002811115611fe157611fe161285f565b145b156120155782611ff281612c66565b600083815260046020526040902060050154909450612012915083612d44565b91505b8061201f81612c66565b915050611f98565b50600080546001600160a01b0316815260076020526040902054600854939992985090965094509092509050565b6005602052816000526040600020818154811061177d57600080fd5b6001600160a01b03811660009081526005602090815260408083208054825181850281018501909352808352606094938301828280156120d057602002820191906000526020600020905b8154815260200190600101908083116120bc575b505050505090506000815167ffffffffffffffff8111156120f3576120f36128ea565b60405190808252806020026020018201604052801561212c57816020015b61211961272e565b8152602001906001900390816121115790505b50905060005b8251811015610975576004600084838151811061215157612151612c3a565b6020908102919091018101518252818101929092526040908101600020815161010081018352815481526001820154938101939093526002808201546001600160a01b0316928401929092526003810154606084015260048101546080840152600581015460a08401526006810154909160c084019160ff16908111156121da576121da61285f565b60028111156121eb576121eb61285f565b815260200160078201548152505082828151811061220b5761220b612c3a565b6020026020010181905250808061222190612c66565b915050612132565b8260008111801561223c57506001548111155b6122585760405162461bcd60e51b81526004016107ae90612be3565b60008181526003602052604081205490036122855760405162461bcd60e51b81526004016107ae90612c11565b6000848152600360208190526040909120015460ff166122dd5760405162461bcd60e51b81526020600482015260136024820152724669656c64206973206e6f742061637469766560681b60448201526064016107ae565b8183106123215760405162461bcd60e51b8152602060048201526012602482015271496e76616c69642074696d652072616e676560701b60448201526064016107ae565b428310156123715760405162461bcd60e51b815260206004820152601c60248201527f53746172742074696d65206d75737420626520696e206675747572650000000060448201526064016107ae565b600061237d8484612c7f565b9050620151808111156123e25760405162461bcd60e51b815260206004820152602760248201527f426f6f6b696e67206475726174696f6e2063616e6e6f742065786365656420326044820152663420686f75727360c81b60648201526084016107ae565b60006123f0610e1083612ce5565b90506123fe610e1083612e99565b15612411578061240d81612c66565b9150505b60008681526003602052604081206002015461242e908390612d2d565b9050803410156124775760405162461bcd60e51b8152602060048201526014602482015273125b9cdd59999a58da595b9d081c185e5b595b9d60621b60448201526064016107ae565b61248287878761077d565b156124cf5760405162461bcd60e51b815260206004820152601b60248201527f54696d6520736c6f7420697320616c726561647920626f6f6b6564000000000060448201526064016107ae565b600280549060006124df83612c66565b91905055506040518061010001604052806002548152602001888152602001336001600160a01b03168152602001878152602001868152602001348152602001600060028111156125325761253261285f565b815242602091820152600280546000908152600480845260409182902085518155938501516001808601919091559185015184840180546001600160a01b0319166001600160a01b039092169190911790556060850151600385015560808501519084015560a0840151600584015560c08401516006840180549193909260ff19909216919084908111156125c9576125c961285f565b021790555060e091909101516007909101553360009081526005602090815260408083206002805482546001818101855593875285872001558b8552600684529184209154825491820183559184529183209091015560088054349290612631908490612d44565b90915550503481101561269457600061264a8234612c7f565b604051909150339082156108fc029083906000818181858888f1935050505015801561267a573d6000803e3d6000fd5b50806008600082825461268d9190612c7f565b9091555050505b60025460408051898152336020820152908101889052606081018790523460808201527f1afaf48ea2dfb98ade4ffb74cf3da0b54cb835e92d9872a1b14603a88fba7ec89060a00160405180910390a250505050505050565b6040518060c0016040528060008152602001606081526020016000815260200160001515815260200160006001600160a01b03168152602001600081525090565b604051806101000160405280600081526020016000815260200160006001600160a01b03168152602001600081526020016000815260200160008152602001600060028111156127805761278061285f565b8152602001600081525090565b6000806000606084860312156127a257600080fd5b505081359360208301359350604090920135919050565b6000602082840312156127cb57600080fd5b5035919050565b6000815180845260005b818110156127f8576020818501810151868301820152016127dc565b506000602082860101526020601f19601f83011685010191505092915050565b86815260c06020820152600061283160c08301886127d2565b60408301969096525092151560608401526001600160a01b0391909116608083015260a09091015292915050565b634e487b7160e01b600052602160045260246000fd5b6003811061289357634e487b7160e01b600052602160045260246000fd5b9052565b888152602081018890526001600160a01b0387166040820152606081018690526080810185905260a0810184905261010081016128d760c0830185612875565b8260e08301529998505050505050505050565b634e487b7160e01b600052604160045260246000fd5b6000806040838503121561291357600080fd5b823567ffffffffffffffff8082111561292b57600080fd5b818501915085601f83011261293f57600080fd5b813581811115612951576129516128ea565b604051601f8201601f19908116603f01168101908382118183101715612979576129796128ea565b8160405282815288602084870101111561299257600080fd5b826020860160208301376000602093820184015298969091013596505050505050565b60a0815260006129c860a08301886127d2565b60208301969096525092151560408401526060830191909152608090910152919050565b600080604083850312156129ff57600080fd5b50508035926020909101359150565b805182526000602082015160c06020850152612a2d60c08501826127d2565b604084810151908601526060808501511515908601526080808501516001600160a01b03169086015260a09384015193909401929092525090919050565b602081526000612a7e6020830184612a0e565b9392505050565b80356001600160a01b0381168114610c9757600080fd5b600060208284031215612aae57600080fd5b612a7e82612a85565b602080825282518282018190526000919060409081850190868401855b82811015612b4a578151805185528681015187860152858101516001600160a01b031686860152606080820151908601526080808201519086015260a0808201519086015260c080820151612b2b82880182612875565b505060e090810151908501526101009093019290850190600101612ad4565b5091979650505050505050565b6000602080830181845280855180835260408601915060408160051b870101925083870160005b82811015612bac57603f19888603018452612b9a858351612a0e565b94509285019290850190600101612b7e565b5092979650505050505050565b60008060408385031215612bcc57600080fd5b612bd583612a85565b946020939093013593505050565b602080825260149082015273119a595b1908191bd95cc81b9bdd08195e1a5cdd60621b604082015260600190565b6020808252600f908201526e119a595b19081b9bdd08199bdd5b99608a1b604082015260600190565b634e487b7160e01b600052603260045260246000fd5b634e487b7160e01b600052601160045260246000fd5b600060018201612c7857612c78612c50565b5060010190565b81810381811115612c9257612c92612c50565b92915050565b60208082526018908201527f4f6e6c79206f776e65722063616e2063616c6c20746869730000000000000000604082015260600190565b634e487b7160e01b600052601260045260246000fd5b600082612cf457612cf4612ccf565b500490565b600181811c90821680612d0d57607f821691505b60208210810361130957634e487b7160e01b600052602260045260246000fd5b8082028115828204841417612c9257612c92612c50565b80820180821115612c9257612c92612c50565b601f821115612da157600081815260208120601f850160051c81016020861015612d7e5750805b601f850160051c820191505b81811015612d9d57828155600101612d8a565b5050505b505050565b815167ffffffffffffffff811115612dc057612dc06128ea565b612dd481612dce8454612cf9565b84612d57565b602080601f831160018114612e095760008415612df15750858301515b600019600386901b1c1916600185901b178555612d9d565b600085815260208120601f198616915b82811015612e3857888601518255948401946001909101908401612e19565b5085821015612e565787850151600019600388901b60f8161c191681555b5050505050600190811b01905550565b606081526000612e7960608301866127d2565b6020830194909452506001600160a01b0391909116604090910152919050565b600082612ea857612ea8612ccf565b50069056fea26469706673582212204bc28fdc9a8ba04e08a096b2917134748453bf5a73979cb032b52242e9677bbe64736f6c63430008140033",
  "linkReferences": {},
  "deployedLinkReferences": {}
}